{"project/contracts/TodoList.sol":{"TodoList":{"abi":[{"anonymous":false,"inputs":[{"indexed":true,"internalType":"uint256","name":"id","type":"uint256"},{"indexed":true,"internalType":"address","name":"owner","type":"address"},{"indexed":false,"internalType":"string","name":"title","type":"string"}],"name":"TodoCreated","type":"event"},{"anonymous":false,"inputs":[{"indexed":true,"internalType":"uint256","name":"id","type":"uint256"},{"indexed":true,"internalType":"address","name":"owner","type":"address"}],"name":"TodoDeleted","type":"event"},{"anonymous":false,"inputs":[{"indexed":true,"internalType":"uint256","name":"id","type":"uint256"},{"indexed":false,"internalType":"uint8","name":"newColumn","type":"uint8"}],"name":"TodoMoved","type":"event"},{"anonymous":false,"inputs":[{"indexed":true,"internalType":"uint256","name":"id","type":"uint256"},{"indexed":true,"internalType":"address","name":"owner","type":"address"}],"name":"TodoUpdated","type":"event"},{"inputs":[{"internalType":"uint256","name":"todoId","type":"uint256"},{"internalType":"string","name":"title","type":"string"}],"name":"addSubTask","outputs":[],"stateMutability":"nonpayable","type":"function"},{"inputs":[{"internalType":"string","name":"title","type":"string"},{"internalType":"string","name":"description","type":"string"},{"internalType":"uint8","name":"priority","type":"uint8"},{"internalType":"uint8","name":"column","type":"uint8"},{"internalType":"string[]","name":"labels","type":"string[]"},{"internalType":"uint256","name":"dueDate","type":"uint256"}],"name":"createTodo","outputs":[],"stateMutability":"nonpayable","type":"function"},{"inputs":[{"internalType":"uint256","name":"id","type":"uint256"}],"name":"deleteTodo","outputs":[],"stateMutability":"nonpayable","type":"function"},{"inputs":[{"internalType":"uint256","name":"todoId","type":"uint256"}],"name":"getSubtasks","outputs":[{"components":[{"internalType":"uint256","name":"id","type":"uint256"},{"internalType":"string","name":"title","type":"string"},{"internalType":"bool","name":"completed","type":"bool"}],"internalType":"struct TodoList.SubTask[]","name":"","type":"tuple[]"}],"stateMutability":"view","type":"function"},{"inputs":[{"internalType":"address","name":"user","type":"address"}],"name":"getTodos","outputs":[{"components":[{"internalType":"uint256","name":"id","type":"uint256"},{"internalType":"string","name":"title","type":"string"},{"internalType":"string","name":"description","type":"string"},{"internalType":"uint8","name":"priority","type":"uint8"},{"internalType":"uint8","name":"column","type":"uint8"},{"internalType":"string[]","name":"labels","type":"string[]"},{"internalType":"uint256","name":"dueDate","type":"uint256"},{"internalType":"uint256","name":"createdAt","type":"uint256"},{"internalType":"bool","name":"exists","type":"bool"}],"internalType":"struct TodoList.Todo[]","name":"","type":"tuple[]"}],"stateMutability":"view","type":"function"},{"inputs":[{"internalType":"uint256","name":"id","type":"uint256"},{"internalType":"uint8","name":"newColumn","type":"uint8"}],"name":"moveTodo","outputs":[],"stateMutability":"nonpayable","type":"function"},{"inputs":[{"internalType":"uint256","name":"todoId","type":"uint256"},{"internalType":"uint256","name":"subId","type":"uint256"}],"name":"toggleSubTask","outputs":[],"stateMutability":"nonpayable","type":"function"},{"inputs":[{"internalType":"uint256","name":"id","type":"uint256"},{"internalType":"string","name":"title","type":"string"},{"internalType":"string","name":"description","type":"string"},{"internalType":"uint8","name":"priority","type":"uint8"},{"internalType":"uint8","name":"column","type":"uint8"},{"internalType":"string[]","name":"labels","type":"string[]"},{"internalType":"uint256","name":"dueDate","type":"uint256"}],"name":"updateTodo","outputs":[],"stateMutability":"nonpayable","type":"function"}],"evm":{"bytecode":{"linkReferences":{},"object":"6080806040523460155761163b908161001a8239f35b5f80fdfe60806040526004361015610011575f80fd5b5f3560e01c8063209f59d6146110a557806367576a7f14610ccc5780636e3c673814610b465780639e1e0b1914610aa2578063a35c0e1814610988578063b9cdbde914610689578063cf27cf74146105b35763d90de7b414610071575f80fd5b3461059b5760c036600319011261059b576004356001600160401b03811161059b576100a1903690600401611262565b906024356001600160401b03811161059b576100c1903690600401611262565b91906044359260ff841680940361059b576100da61128f565b6084356001600160401b03811161059b576100f990369060040161129f565b91905f54965f19881461059f57600188015f556101396040519661011c88611350565b89885261012a368c8b61138d565b9660208901978852369161138d565b93604087019485526060870191825260ff608088019416845261015b8161153c565b92610169604051948561136c565b818452602084019160051b81019036821161059b5780925b82841061055f575050505060a0860191825260c086019260a435845260e087019442865261010088019660018852335f52600160205260405f208b5f5260205260405f20985189556001890190518051906001600160401b03821161039d576101f4826101ee85546113ff565b8561144d565b602090601f83116001146104fc5761022392915f918361041d575b50508160011b915f199060031b1c19161790565b90555b51805160028901916001600160401b03821161039d5761024a826101ee85546113ff565b602090601f831160011461049157826102ad96959360ff9593610281935f9261041d5750508160011b915f199060031b1c19161790565b90555b818060038b01945116168219845416178355511661ff0082549160081b169061ff001916179055565b60048501905160208151916102c283856114e0565b01915f5260205f20915f905b8282106103b1575050505091600791610304949351600585015551600684015551151591019060ff801983541691151516179055565b335f52600260205260405f2090815491600160401b83101561039d57836103558461036d9360017fcf2fcabd20b863af4f5125436f0d4760d45f77eda0a8e1ed3441f9275525321d97018155611527565b90919082549060031b91821b915f19901b1916179055565b83604051916020835281602084015260408301375f604085830101526040813395601f80199101168101030190a3005b634e487b7160e01b5f52604160045260245ffd5b80518051906001600160401b03821161039d576103d8826103d288546113ff565b8861144d565b602090601f8311600114610428579261040e836001959460209487965f9261041d5750508160011b915f199060031b1c19161790565b87555b019401910190926102ce565b015190505f8061020f565b90601f19831691875f52815f20925f5b8181106104795750936020936001969387969383889510610461575b505050811b018755610411565b01515f1960f88460031b161c191690555f8080610454565b92936020600181928786015181550195019301610438565b90601f19831691845f52815f20925f5b8181106104e457509260019285926102ad99989660ff9896106104cc575b505050811b019055610284565b01515f1960f88460031b161c191690555f80806104bf565b929360206001819287860151815501950193016104a1565b90601f19831691845f52815f20925f5b818110610547575090846001959493921061052f575b505050811b019055610226565b01515f1960f88460031b161c191690555f8080610522565b9293602060018192878601518155019501930161050c565b83356001600160401b03811161059b57820136601f8201121561059b5760209161059083923690848135910161138d565b815201930192610181565b5f80fd5b634e487b7160e01b5f52601160045260245ffd5b3461059b57604036600319011261059b5760043560243590335f52600160205260405f20815f526020526105f060ff600760405f200154166112f3565b805f52600360205260405f205482101561065057600261063b61064e93835f52600360205260ff836106258360405f206113d2565b5001541615935f52600360205260405f206113d2565b50019060ff801983541691151516179055565b005b60405162461bcd60e51b815260206004820152601160248201527014dd589d185cdac81b9bdd08199bdd5b99607a1b6044820152606490fd5b3461059b57602036600319011261059b576004356001600160a01b0381169081900361059b57805f52600260205260405f208054906106c78261153c565b926106d5604051948561136c565b828452601f196106e48461153c565b015f5b8181106109375750505f5b83811061082757846040518091602082016020835281518091526040830190602060408260051b8601019301915f905b82821061073157505050500390f35b919390929450603f1986820301825284519081518152610777610765602084015161012060208501526101208401906112cf565b604084015183820360408501526112cf565b9160ff606082015116606083015260ff608082015116608083015260a08101519282810360a0840152835180825260208201906020808260051b8501019601925f5b8281106107fc575050505050600192602092610100808460c08796015160c085015260e081015160e0850152015115159101529601920192018594939192610722565b909192939660208061081a600193601f198782030189528b516112cf565b99019501939291016107b9565b815f52600160205260405f2061083d8285611527565b90549060031b1c5f5260205260405f206040519061085a82611350565b8054825261086a60018201611553565b602083015261087b60028201611553565b604083015260ff6003820154818116606085015260081c1660808301526004810180546108a78161153c565b916108b5604051938461136c565b81835260208301905f5260205f20905f905b83821061091a575050505060a0830152600581015460c0830152600681015460e08301526007015460ff1615156101008201526001919061090882886115f1565b5261091381876115f1565b50016106f2565b60016020819261092986611553565b8152019301910190916108c7565b60209060405161094681611350565b5f8152606083820152606060408201525f60608201525f6080820152606060a08201525f60c08201525f60e08201525f610100820152828289010152016106e7565b3461059b57602036600319011261059b576004355f52600360205260405f208054906109b38261153c565b916109c1604051938461136c565b8083526020830180925f5260205f205f915b838310610a5f57848660405191829160208301906020845251809152604083019060408160051b85010192915f905b828210610a1157505050500390f35b919360019193955060208091603f1989820301855287519081518152604080610a478585015160608786015260608501906112cf565b93015115159101529601920192018594939192610a02565b60036020600192604051610a7281611335565b85548152610a81858701611553565b8382015260ff600287015416151560408201528152019201920191906109d3565b3461059b57604036600319011261059b5760043560243560ff81169081810361059b577feafa114cde328778f836413412ff75f61f1c8115c4515a495ba5926a9fa86be691610b3d602092335f526001845260405f20865f528452610b1060ff600760405f200154166112f3565b335f526001845260405f20865f528452600360405f20019061ff0082549160081b169061ff001916179055565b604051908152a2005b3461059b57602036600319011261059b57600435335f52600160205260405f20815f52602052610b7f60ff600760405f200154166112f3565b335f52600160205260405f20815f5260205260405f205f8155610ba460018201611492565b610bb060028201611492565b5f6003820155600481018054905f815581610ca7575b50506007815f6005819401558260068201550155335f52600260205260405f205f5b81549081811015610c9f5783610bfe8285611527565b90549060031b1c14610c14576001915001610be8565b5f19820191821161059f57610355610c2f610c3d9385611527565b90549060031b1c9184611527565b80548015610c8b575f190190610c538282611527565b8154905f199060031b1b19169055555b33907f240eb6c41ab2c1d4565d3f6ea56f82da83bd83014d758763a7caa5eff3135ac85f80a3005b634e487b7160e01b5f52603160045260245ffd5b505050610c63565b5f5260205f20908101905b81811015610bc65780610cc6600192611492565b01610cb2565b3461059b5760e036600319011261059b576004356024356001600160401b03811161059b57610cff903690600401611262565b906044356001600160401b03811161059b57610d1f903690600401611262565b9190610d2961128f565b6084359160ff8316830361059b5760a4356001600160401b03811161059b57610d5690369060040161129f565b959094335f52600160205260405f20895f52602052610d7e60ff600760405f200154166112f3565b335f52600160205260405f20895f5260205260405f209760018901916001600160401b03821161039d57610db6826101ee85546113ff565b5f90601f831160011461104157610de392915f91836110365750508160011b915f199060031b1c19161790565b90555b60028701916001600160401b03821161039d57610e07826101ee85546113ff565b5f90601f8311600114610fc9579180610e3b92610e68979695945f92610fbe5750508160011b915f199060031b1c19161790565b90559392935b60ff60038701911660ff198254161781559061ff0082549160081b169061ff001916179055565b6004830191610e7782846114e0565b80925f5260205f20925f91601e1981360301915b848410610ec25760c435600588015533887f84e14df21a3afba7ce0b61b7321717e35008d64afbab5d3e5bab9aca9422e8f55f80a3005b80358381121561059b5782018035906001600160401b03821161059b57813603602082011361059b57610eff82610ef98a546113ff565b8a61144d565b5f90601f8311600114610f505792610f34836001959460209487965f92610f435750508160011b915f199060031b1c19161790565b89555b01960193019294610e8b565b8692500101358e8061020f565b601f19831691895f5260205f20925f5b818110610fa45750936020936001969387969383889510610f89575b505050811b018955610f37565b018501355f19600384901b60f8161c191690558d8080610f7c565b919360206001819282888801013581550195019201610f60565b013590508b8061020f565b601f19831691845f5260205f20925f5b81811061101e5750916001939185610e68999897969410611005575b505050811b019055939293610e41565b01355f19600384901b60f8161c191690558a8080610ff5565b91936020600181928787013581550195019201610fd9565b013590508c8061020f565b601f19831691845f5260205f20925f5b81811061108d5750908460019594939210611074575b505050811b019055610de6565b01355f19600384901b60f8161c191690558b8080611067565b91936020600181928787013581550195019201611051565b3461059b57604036600319011261059b576024356004356001600160401b03821161059b576110db61112b923690600401611262565b9290335f52600160205260405f20835f5260205261110260ff600760405f200154166112f3565b5f9283526003602052604092839020805493519094909361112285611335565b8452369161138d565b916020820192835260408201905f82528054600160401b81101561039d57611158916001820181556113d2565b92909261124f575182556001820192519283516001600160401b03811161039d5761118d8161118784546113ff565b8461144d565b6020601f82116001146111e6578160029493926111c29261064e985f926111db5750508160011b915f199060031b1c19161790565b90555b51151591019060ff801983541691151516179055565b01519050888061020f565b601f19821695835f52815f20965f5b8181106112375750966001928492600297969561064e9a1061121f575b505050811b0190556111c5565b01515f1960f88460031b161c19169055878080611212565b838301518955600190980197602093840193016111f5565b634e487b7160e01b5f525f60045260245ffd5b9181601f8401121561059b578235916001600160401b03831161059b576020838186019501011161059b57565b6064359060ff8216820361059b57565b9181601f8401121561059b578235916001600160401b03831161059b576020808501948460051b01011161059b57565b805180835260209291819084018484015e5f828201840152601f01601f1916010190565b156112fa57565b60405162461bcd60e51b8152602060048201526013602482015272151bd91bc8191bd95cc81b9bdd08195e1a5cdd606a1b6044820152606490fd5b606081019081106001600160401b0382111761039d57604052565b61012081019081106001600160401b0382111761039d57604052565b90601f801991011681019081106001600160401b0382111761039d57604052565b9291926001600160401b03821161039d57604051916113b6601f8201601f19166020018461136c565b82948184528183011161059b578281602093845f960137010152565b80548210156113eb575f52600360205f20910201905f90565b634e487b7160e01b5f52603260045260245ffd5b90600182811c9216801561142d575b602083101461141957565b634e487b7160e01b5f52602260045260245ffd5b91607f169161140e565b818110611442575050565b5f8155600101611437565b9190601f811161145c57505050565b611486925f5260205f20906020601f840160051c83019310611488575b601f0160051c0190611437565b565b9091508190611479565b61149c81546113ff565b90816114a6575050565b81601f5f93116001146114b7575055565b818352602083206114d391601f0160051c810190600101611437565b8082528160208120915555565b90600160401b811161039d578154918181558282106114fe57505050565b5f5260205f2091820191015b818110611515575050565b80611521600192611492565b0161150a565b80548210156113eb575f5260205f2001905f90565b6001600160401b03811161039d5760051b60200190565b9060405191825f825492611566846113ff565b80845293600181169081156115cf575060011461158b575b506114869250038361136c565b90505f9291925260205f20905f915b8183106115b3575050906020611486928201015f61157e565b602091935080600191548385890101520191019091849261159a565b90506020925061148694915060ff191682840152151560051b8201015f61157e565b80518210156113eb5760209160051b01019056fea2646970667358221220c98d3072cee55d6cf613ed3aee32e338cf77ca4714c45404e68a3bf99e00a38c64736f6c634300081c0033","opcodes":"PUSH1 0x80 DUP1 PUSH1 0x40 MSTORE CALLVALUE PUSH1 0x15 JUMPI PUSH2 0x163B SWAP1 DUP2 PUSH2 0x1A DUP3 CODECOPY RETURN JUMPDEST PUSH0 DUP1 REVERT INVALID PUSH1 0x80 PUSH1 0x40 MSTORE PUSH1 0x4 CALLDATASIZE LT ISZERO PUSH2 0x11 JUMPI PUSH0 DUP1 REVERT JUMPDEST PUSH0 CALLDATALOAD PUSH1 0xE0 SHR DUP1 PUSH4 0x209F59D6 EQ PUSH2 0x10A5 JUMPI DUP1 PUSH4 0x67576A7F EQ PUSH2 0xCCC JUMPI DUP1 PUSH4 0x6E3C6738 EQ PUSH2 0xB46 JUMPI DUP1 PUSH4 0x9E1E0B19 EQ PUSH2 0xAA2 JUMPI DUP1 PUSH4 0xA35C0E18 EQ PUSH2 0x988 JUMPI DUP1 PUSH4 0xB9CDBDE9 EQ PUSH2 0x689 JUMPI DUP1 PUSH4 0xCF27CF74 EQ PUSH2 0x5B3 JUMPI PUSH4 0xD90DE7B4 EQ PUSH2 0x71 JUMPI PUSH0 DUP1 REVERT JUMPDEST CALLVALUE PUSH2 0x59B JUMPI PUSH1 0xC0 CALLDATASIZE PUSH1 0x3 NOT ADD SLT PUSH2 0x59B JUMPI PUSH1 0x4 CALLDATALOAD PUSH1 0x1 PUSH1 0x1 PUSH1 0x40 SHL SUB DUP2 GT PUSH2 0x59B JUMPI PUSH2 0xA1 SWAP1 CALLDATASIZE SWAP1 PUSH1 0x4 ADD PUSH2 0x1262 JUMP JUMPDEST SWAP1 PUSH1 0x24 CALLDATALOAD PUSH1 0x1 PUSH1 0x1 PUSH1 0x40 SHL SUB DUP2 GT PUSH2 0x59B JUMPI PUSH2 0xC1 SWAP1 CALLDATASIZE SWAP1 PUSH1 0x4 ADD PUSH2 0x1262 JUMP JUMPDEST SWAP2 SWAP1 PUSH1 0x44 CALLDATALOAD SWAP3 PUSH1 0xFF DUP5 AND DUP1 SWAP5 SUB PUSH2 0x59B JUMPI PUSH2 0xDA PUSH2 0x128F JUMP JUMPDEST PUSH1 0x84 CALLDATALOAD PUSH1 0x1 PUSH1 0x1 PUSH1 0x40 SHL SUB DUP2 GT PUSH2 0x59B JUMPI PUSH2 0xF9 SWAP1 CALLDATASIZE SWAP1 PUSH1 0x4 ADD PUSH2 0x129F JUMP JUMPDEST SWAP2 SWAP1 PUSH0 SLOAD SWAP7 PUSH0 NOT DUP9 EQ PUSH2 0x59F JUMPI PUSH1 0x1 DUP9 ADD PUSH0 SSTORE PUSH2 0x139 PUSH1 0x40 MLOAD SWAP7 PUSH2 0x11C DUP9 PUSH2 0x1350 JUMP JUMPDEST DUP10 DUP9 MSTORE PUSH2 0x12A CALLDATASIZE DUP13 DUP12 PUSH2 0x138D JUMP JUMPDEST SWAP7 PUSH1 0x20 DUP10 ADD SWAP8 DUP9 MSTORE CALLDATASIZE SWAP2 PUSH2 0x138D JUMP JUMPDEST SWAP4 PUSH1 0x40 DUP8 ADD SWAP5 DUP6 MSTORE PUSH1 0x60 DUP8 ADD SWAP2 DUP3 MSTORE PUSH1 0xFF PUSH1 0x80 DUP9 ADD SWAP5 AND DUP5 MSTORE PUSH2 0x15B DUP2 PUSH2 0x153C JUMP JUMPDEST SWAP3 PUSH2 0x169 PUSH1 0x40 MLOAD SWAP5 DUP6 PUSH2 0x136C JUMP JUMPDEST DUP2 DUP5 MSTORE PUSH1 0x20 DUP5 ADD SWAP2 PUSH1 0x5 SHL DUP2 ADD SWAP1 CALLDATASIZE DUP3 GT PUSH2 0x59B JUMPI DUP1 SWAP3 JUMPDEST DUP3 DUP5 LT PUSH2 0x55F JUMPI POP POP POP POP PUSH1 0xA0 DUP7 ADD SWAP2 DUP3 MSTORE PUSH1 0xC0 DUP7 ADD SWAP3 PUSH1 0xA4 CALLDATALOAD DUP5 MSTORE PUSH1 0xE0 DUP8 ADD SWAP5 TIMESTAMP DUP7 MSTORE PUSH2 0x100 DUP9 ADD SWAP7 PUSH1 0x1 DUP9 MSTORE CALLER PUSH0 MSTORE PUSH1 0x1 PUSH1 0x20 MSTORE PUSH1 0x40 PUSH0 KECCAK256 DUP12 PUSH0 MSTORE PUSH1 0x20 MSTORE PUSH1 0x40 PUSH0 KECCAK256 SWAP9 MLOAD DUP10 SSTORE PUSH1 0x1 DUP10 ADD SWAP1 MLOAD DUP1 MLOAD SWAP1 PUSH1 0x1 PUSH1 0x1 PUSH1 0x40 SHL SUB DUP3 GT PUSH2 0x39D JUMPI PUSH2 0x1F4 DUP3 PUSH2 0x1EE DUP6 SLOAD PUSH2 0x13FF JUMP JUMPDEST DUP6 PUSH2 0x144D JUMP JUMPDEST PUSH1 0x20 SWAP1 PUSH1 0x1F DUP4 GT PUSH1 0x1 EQ PUSH2 0x4FC JUMPI PUSH2 0x223 SWAP3 SWAP2 PUSH0 SWAP2 DUP4 PUSH2 0x41D JUMPI JUMPDEST POP POP DUP2 PUSH1 0x1 SHL SWAP2 PUSH0 NOT SWAP1 PUSH1 0x3 SHL SHR NOT AND OR SWAP1 JUMP JUMPDEST SWAP1 SSTORE JUMPDEST MLOAD DUP1 MLOAD PUSH1 0x2 DUP10 ADD SWAP2 PUSH1 0x1 PUSH1 0x1 PUSH1 0x40 SHL SUB DUP3 GT PUSH2 0x39D JUMPI PUSH2 0x24A DUP3 PUSH2 0x1EE DUP6 SLOAD PUSH2 0x13FF JUMP JUMPDEST PUSH1 0x20 SWAP1 PUSH1 0x1F DUP4 GT PUSH1 0x1 EQ PUSH2 0x491 JUMPI DUP3 PUSH2 0x2AD SWAP7 SWAP6 SWAP4 PUSH1 0xFF SWAP6 SWAP4 PUSH2 0x281 SWAP4 PUSH0 SWAP3 PUSH2 0x41D JUMPI POP POP DUP2 PUSH1 0x1 SHL SWAP2 PUSH0 NOT SWAP1 PUSH1 0x3 SHL SHR NOT AND OR SWAP1 JUMP JUMPDEST SWAP1 SSTORE JUMPDEST DUP2 DUP1 PUSH1 0x3 DUP12 ADD SWAP5 MLOAD AND AND DUP3 NOT DUP5 SLOAD AND OR DUP4 SSTORE MLOAD AND PUSH2 0xFF00 DUP3 SLOAD SWAP2 PUSH1 0x8 SHL AND SWAP1 PUSH2 0xFF00 NOT AND OR SWAP1 SSTORE JUMP JUMPDEST PUSH1 0x4 DUP6 ADD SWAP1 MLOAD PUSH1 0x20 DUP2 MLOAD SWAP2 PUSH2 0x2C2 DUP4 DUP6 PUSH2 0x14E0 JUMP JUMPDEST ADD SWAP2 PUSH0 MSTORE PUSH1 0x20 PUSH0 KECCAK256 SWAP2 PUSH0 SWAP1 JUMPDEST DUP3 DUP3 LT PUSH2 0x3B1 JUMPI POP POP POP POP SWAP2 PUSH1 0x7 SWAP2 PUSH2 0x304 SWAP5 SWAP4 MLOAD PUSH1 0x5 DUP6 ADD SSTORE MLOAD PUSH1 0x6 DUP5 ADD SSTORE MLOAD ISZERO ISZERO SWAP2 ADD SWAP1 PUSH1 0xFF DUP1 NOT DUP4 SLOAD AND SWAP2 ISZERO ISZERO AND OR SWAP1 SSTORE JUMP JUMPDEST CALLER PUSH0 MSTORE PUSH1 0x2 PUSH1 0x20 MSTORE PUSH1 0x40 PUSH0 KECCAK256 SWAP1 DUP2 SLOAD SWAP2 PUSH1 0x1 PUSH1 0x40 SHL DUP4 LT ISZERO PUSH2 0x39D JUMPI DUP4 PUSH2 0x355 DUP5 PUSH2 0x36D SWAP4 PUSH1 0x1 PUSH32 0xCF2FCABD20B863AF4F5125436F0D4760D45F77EDA0A8E1ED3441F9275525321D SWAP8 ADD DUP2 SSTORE PUSH2 0x1527 JUMP JUMPDEST SWAP1 SWAP2 SWAP1 DUP3 SLOAD SWAP1 PUSH1 0x3 SHL SWAP2 DUP3 SHL SWAP2 PUSH0 NOT SWAP1 SHL NOT AND OR SWAP1 SSTORE JUMP JUMPDEST DUP4 PUSH1 0x40 MLOAD SWAP2 PUSH1 0x20 DUP4 MSTORE DUP2 PUSH1 0x20 DUP5 ADD MSTORE PUSH1 0x40 DUP4 ADD CALLDATACOPY PUSH0 PUSH1 0x40 DUP6 DUP4 ADD ADD MSTORE PUSH1 0x40 DUP2 CALLER SWAP6 PUSH1 0x1F DUP1 NOT SWAP2 ADD AND DUP2 ADD SUB ADD SWAP1 LOG3 STOP JUMPDEST PUSH4 0x4E487B71 PUSH1 0xE0 SHL PUSH0 MSTORE PUSH1 0x41 PUSH1 0x4 MSTORE PUSH1 0x24 PUSH0 REVERT JUMPDEST DUP1 MLOAD DUP1 MLOAD SWAP1 PUSH1 0x1 PUSH1 0x1 PUSH1 0x40 SHL SUB DUP3 GT PUSH2 0x39D JUMPI PUSH2 0x3D8 DUP3 PUSH2 0x3D2 DUP9 SLOAD PUSH2 0x13FF JUMP JUMPDEST DUP9 PUSH2 0x144D JUMP JUMPDEST PUSH1 0x20 SWAP1 PUSH1 0x1F DUP4 GT PUSH1 0x1 EQ PUSH2 0x428 JUMPI SWAP3 PUSH2 0x40E DUP4 PUSH1 0x1 SWAP6 SWAP5 PUSH1 0x20 SWAP5 DUP8 SWAP7 PUSH0 SWAP3 PUSH2 0x41D JUMPI POP POP DUP2 PUSH1 0x1 SHL SWAP2 PUSH0 NOT SWAP1 PUSH1 0x3 SHL SHR NOT AND OR SWAP1 JUMP JUMPDEST DUP8 SSTORE JUMPDEST ADD SWAP5 ADD SWAP2 ADD SWAP1 SWAP3 PUSH2 0x2CE JUMP JUMPDEST ADD MLOAD SWAP1 POP PUSH0 DUP1 PUSH2 0x20F JUMP JUMPDEST SWAP1 PUSH1 0x1F NOT DUP4 AND SWAP2 DUP8 PUSH0 MSTORE DUP2 PUSH0 KECCAK256 SWAP3 PUSH0 JUMPDEST DUP2 DUP2 LT PUSH2 0x479 JUMPI POP SWAP4 PUSH1 0x20 SWAP4 PUSH1 0x1 SWAP7 SWAP4 DUP8 SWAP7 SWAP4 DUP4 DUP9 SWAP6 LT PUSH2 0x461 JUMPI JUMPDEST POP POP POP DUP2 SHL ADD DUP8 SSTORE PUSH2 0x411 JUMP JUMPDEST ADD MLOAD PUSH0 NOT PUSH1 0xF8 DUP5 PUSH1 0x3 SHL AND SHR NOT AND SWAP1 SSTORE PUSH0 DUP1 DUP1 PUSH2 0x454 JUMP JUMPDEST SWAP3 SWAP4 PUSH1 0x20 PUSH1 0x1 DUP2 SWAP3 DUP8 DUP7 ADD MLOAD DUP2 SSTORE ADD SWAP6 ADD SWAP4 ADD PUSH2 0x438 JUMP JUMPDEST SWAP1 PUSH1 0x1F NOT DUP4 AND SWAP2 DUP5 PUSH0 MSTORE DUP2 PUSH0 KECCAK256 SWAP3 PUSH0 JUMPDEST DUP2 DUP2 LT PUSH2 0x4E4 JUMPI POP SWAP3 PUSH1 0x1 SWAP3 DUP6 SWAP3 PUSH2 0x2AD SWAP10 SWAP9 SWAP7 PUSH1 0xFF SWAP9 SWAP7 LT PUSH2 0x4CC JUMPI JUMPDEST POP POP POP DUP2 SHL ADD SWAP1 SSTORE PUSH2 0x284 JUMP JUMPDEST ADD MLOAD PUSH0 NOT PUSH1 0xF8 DUP5 PUSH1 0x3 SHL AND SHR NOT AND SWAP1 SSTORE PUSH0 DUP1 DUP1 PUSH2 0x4BF JUMP JUMPDEST SWAP3 SWAP4 PUSH1 0x20 PUSH1 0x1 DUP2 SWAP3 DUP8 DUP7 ADD MLOAD DUP2 SSTORE ADD SWAP6 ADD SWAP4 ADD PUSH2 0x4A1 JUMP JUMPDEST SWAP1 PUSH1 0x1F NOT DUP4 AND SWAP2 DUP5 PUSH0 MSTORE DUP2 PUSH0 KECCAK256 SWAP3 PUSH0 JUMPDEST DUP2 DUP2 LT PUSH2 0x547 JUMPI POP SWAP1 DUP5 PUSH1 0x1 SWAP6 SWAP5 SWAP4 SWAP3 LT PUSH2 0x52F JUMPI JUMPDEST POP POP POP DUP2 SHL ADD SWAP1 SSTORE PUSH2 0x226 JUMP JUMPDEST ADD MLOAD PUSH0 NOT PUSH1 0xF8 DUP5 PUSH1 0x3 SHL AND SHR NOT AND SWAP1 SSTORE PUSH0 DUP1 DUP1 PUSH2 0x522 JUMP JUMPDEST SWAP3 SWAP4 PUSH1 0x20 PUSH1 0x1 DUP2 SWAP3 DUP8 DUP7 ADD MLOAD DUP2 SSTORE ADD SWAP6 ADD SWAP4 ADD PUSH2 0x50C JUMP JUMPDEST DUP4 CALLDATALOAD PUSH1 0x1 PUSH1 0x1 PUSH1 0x40 SHL SUB DUP2 GT PUSH2 0x59B JUMPI DUP3 ADD CALLDATASIZE PUSH1 0x1F DUP3 ADD SLT ISZERO PUSH2 0x59B JUMPI PUSH1 0x20 SWAP2 PUSH2 0x590 DUP4 SWAP3 CALLDATASIZE SWAP1 DUP5 DUP2 CALLDATALOAD SWAP2 ADD PUSH2 0x138D JUMP JUMPDEST DUP2 MSTORE ADD SWAP4 ADD SWAP3 PUSH2 0x181 JUMP JUMPDEST PUSH0 DUP1 REVERT JUMPDEST PUSH4 0x4E487B71 PUSH1 0xE0 SHL PUSH0 MSTORE PUSH1 0x11 PUSH1 0x4 MSTORE PUSH1 0x24 PUSH0 REVERT JUMPDEST CALLVALUE PUSH2 0x59B JUMPI PUSH1 0x40 CALLDATASIZE PUSH1 0x3 NOT ADD SLT PUSH2 0x59B JUMPI PUSH1 0x4 CALLDATALOAD PUSH1 0x24 CALLDATALOAD SWAP1 CALLER PUSH0 MSTORE PUSH1 0x1 PUSH1 0x20 MSTORE PUSH1 0x40 PUSH0 KECCAK256 DUP2 PUSH0 MSTORE PUSH1 0x20 MSTORE PUSH2 0x5F0 PUSH1 0xFF PUSH1 0x7 PUSH1 0x40 PUSH0 KECCAK256 ADD SLOAD AND PUSH2 0x12F3 JUMP JUMPDEST DUP1 PUSH0 MSTORE PUSH1 0x3 PUSH1 0x20 MSTORE PUSH1 0x40 PUSH0 KECCAK256 SLOAD DUP3 LT ISZERO PUSH2 0x650 JUMPI PUSH1 0x2 PUSH2 0x63B PUSH2 0x64E SWAP4 DUP4 PUSH0 MSTORE PUSH1 0x3 PUSH1 0x20 MSTORE PUSH1 0xFF DUP4 PUSH2 0x625 DUP4 PUSH1 0x40 PUSH0 KECCAK256 PUSH2 0x13D2 JUMP JUMPDEST POP ADD SLOAD AND ISZERO SWAP4 PUSH0 MSTORE PUSH1 0x3 PUSH1 0x20 MSTORE PUSH1 0x40 PUSH0 KECCAK256 PUSH2 0x13D2 JUMP JUMPDEST POP ADD SWAP1 PUSH1 0xFF DUP1 NOT DUP4 SLOAD AND SWAP2 ISZERO ISZERO AND OR SWAP1 SSTORE JUMP JUMPDEST STOP JUMPDEST PUSH1 0x40 MLOAD PUSH3 0x461BCD PUSH1 0xE5 SHL DUP2 MSTORE PUSH1 0x20 PUSH1 0x4 DUP3 ADD MSTORE PUSH1 0x11 PUSH1 0x24 DUP3 ADD MSTORE PUSH17 0x14DD589D185CDAC81B9BDD08199BDD5B99 PUSH1 0x7A SHL PUSH1 0x44 DUP3 ADD MSTORE PUSH1 0x64 SWAP1 REVERT JUMPDEST CALLVALUE PUSH2 0x59B JUMPI PUSH1 0x20 CALLDATASIZE PUSH1 0x3 NOT ADD SLT PUSH2 0x59B JUMPI PUSH1 0x4 CALLDATALOAD PUSH1 0x1 PUSH1 0x1 PUSH1 0xA0 SHL SUB DUP2 AND SWAP1 DUP2 SWAP1 SUB PUSH2 0x59B JUMPI DUP1 PUSH0 MSTORE PUSH1 0x2 PUSH1 0x20 MSTORE PUSH1 0x40 PUSH0 KECCAK256 DUP1 SLOAD SWAP1 PUSH2 0x6C7 DUP3 PUSH2 0x153C JUMP JUMPDEST SWAP3 PUSH2 0x6D5 PUSH1 0x40 MLOAD SWAP5 DUP6 PUSH2 0x136C JUMP JUMPDEST DUP3 DUP5 MSTORE PUSH1 0x1F NOT PUSH2 0x6E4 DUP5 PUSH2 0x153C JUMP JUMPDEST ADD PUSH0 JUMPDEST DUP2 DUP2 LT PUSH2 0x937 JUMPI POP POP PUSH0 JUMPDEST DUP4 DUP2 LT PUSH2 0x827 JUMPI DUP5 PUSH1 0x40 MLOAD DUP1 SWAP2 PUSH1 0x20 DUP3 ADD PUSH1 0x20 DUP4 MSTORE DUP2 MLOAD DUP1 SWAP2 MSTORE PUSH1 0x40 DUP4 ADD SWAP1 PUSH1 0x20 PUSH1 0x40 DUP3 PUSH1 0x5 SHL DUP7 ADD ADD SWAP4 ADD SWAP2 PUSH0 SWAP1 JUMPDEST DUP3 DUP3 LT PUSH2 0x731 JUMPI POP POP POP POP SUB SWAP1 RETURN JUMPDEST SWAP2 SWAP4 SWAP1 SWAP3 SWAP5 POP PUSH1 0x3F NOT DUP7 DUP3 SUB ADD DUP3 MSTORE DUP5 MLOAD SWAP1 DUP2 MLOAD DUP2 MSTORE PUSH2 0x777 PUSH2 0x765 PUSH1 0x20 DUP5 ADD MLOAD PUSH2 0x120 PUSH1 0x20 DUP6 ADD MSTORE PUSH2 0x120 DUP5 ADD SWAP1 PUSH2 0x12CF JUMP JUMPDEST PUSH1 0x40 DUP5 ADD MLOAD DUP4 DUP3 SUB PUSH1 0x40 DUP6 ADD MSTORE PUSH2 0x12CF JUMP JUMPDEST SWAP2 PUSH1 0xFF PUSH1 0x60 DUP3 ADD MLOAD AND PUSH1 0x60 DUP4 ADD MSTORE PUSH1 0xFF PUSH1 0x80 DUP3 ADD MLOAD AND PUSH1 0x80 DUP4 ADD MSTORE PUSH1 0xA0 DUP2 ADD MLOAD SWAP3 DUP3 DUP2 SUB PUSH1 0xA0 DUP5 ADD MSTORE DUP4 MLOAD DUP1 DUP3 MSTORE PUSH1 0x20 DUP3 ADD SWAP1 PUSH1 0x20 DUP1 DUP3 PUSH1 0x5 SHL DUP6 ADD ADD SWAP7 ADD SWAP3 PUSH0 JUMPDEST DUP3 DUP2 LT PUSH2 0x7FC JUMPI POP POP POP POP POP PUSH1 0x1 SWAP3 PUSH1 0x20 SWAP3 PUSH2 0x100 DUP1 DUP5 PUSH1 0xC0 DUP8 SWAP7 ADD MLOAD PUSH1 0xC0 DUP6 ADD MSTORE PUSH1 0xE0 DUP2 ADD MLOAD PUSH1 0xE0 DUP6 ADD MSTORE ADD MLOAD ISZERO ISZERO SWAP2 ADD MSTORE SWAP7 ADD SWAP3 ADD SWAP3 ADD DUP6 SWAP5 SWAP4 SWAP2 SWAP3 PUSH2 0x722 JUMP JUMPDEST SWAP1 SWAP2 SWAP3 SWAP4 SWAP7 PUSH1 0x20 DUP1 PUSH2 0x81A PUSH1 0x1 SWAP4 PUSH1 0x1F NOT DUP8 DUP3 SUB ADD DUP10 MSTORE DUP12 MLOAD PUSH2 0x12CF JUMP JUMPDEST SWAP10 ADD SWAP6 ADD SWAP4 SWAP3 SWAP2 ADD PUSH2 0x7B9 JUMP JUMPDEST DUP2 PUSH0 MSTORE PUSH1 0x1 PUSH1 0x20 MSTORE PUSH1 0x40 PUSH0 KECCAK256 PUSH2 0x83D DUP3 DUP6 PUSH2 0x1527 JUMP JUMPDEST SWAP1 SLOAD SWAP1 PUSH1 0x3 SHL SHR PUSH0 MSTORE PUSH1 0x20 MSTORE PUSH1 0x40 PUSH0 KECCAK256 PUSH1 0x40 MLOAD SWAP1 PUSH2 0x85A DUP3 PUSH2 0x1350 JUMP JUMPDEST DUP1 SLOAD DUP3 MSTORE PUSH2 0x86A PUSH1 0x1 DUP3 ADD PUSH2 0x1553 JUMP JUMPDEST PUSH1 0x20 DUP4 ADD MSTORE PUSH2 0x87B PUSH1 0x2 DUP3 ADD PUSH2 0x1553 JUMP JUMPDEST PUSH1 0x40 DUP4 ADD MSTORE PUSH1 0xFF PUSH1 0x3 DUP3 ADD SLOAD DUP2 DUP2 AND PUSH1 0x60 DUP6 ADD MSTORE PUSH1 0x8 SHR AND PUSH1 0x80 DUP4 ADD MSTORE PUSH1 0x4 DUP2 ADD DUP1 SLOAD PUSH2 0x8A7 DUP2 PUSH2 0x153C JUMP JUMPDEST SWAP2 PUSH2 0x8B5 PUSH1 0x40 MLOAD SWAP4 DUP5 PUSH2 0x136C JUMP JUMPDEST DUP2 DUP4 MSTORE PUSH1 0x20 DUP4 ADD SWAP1 PUSH0 MSTORE PUSH1 0x20 PUSH0 KECCAK256 SWAP1 PUSH0 SWAP1 JUMPDEST DUP4 DUP3 LT PUSH2 0x91A JUMPI POP POP POP POP PUSH1 0xA0 DUP4 ADD MSTORE PUSH1 0x5 DUP2 ADD SLOAD PUSH1 0xC0 DUP4 ADD MSTORE PUSH1 0x6 DUP2 ADD SLOAD PUSH1 0xE0 DUP4 ADD MSTORE PUSH1 0x7 ADD SLOAD PUSH1 0xFF AND ISZERO ISZERO PUSH2 0x100 DUP3 ADD MSTORE PUSH1 0x1 SWAP2 SWAP1 PUSH2 0x908 DUP3 DUP9 PUSH2 0x15F1 JUMP JUMPDEST MSTORE PUSH2 0x913 DUP2 DUP8 PUSH2 0x15F1 JUMP JUMPDEST POP ADD PUSH2 0x6F2 JUMP JUMPDEST PUSH1 0x1 PUSH1 0x20 DUP2 SWAP3 PUSH2 0x929 DUP7 PUSH2 0x1553 JUMP JUMPDEST DUP2 MSTORE ADD SWAP4 ADD SWAP2 ADD SWAP1 SWAP2 PUSH2 0x8C7 JUMP JUMPDEST PUSH1 0x20 SWAP1 PUSH1 0x40 MLOAD PUSH2 0x946 DUP2 PUSH2 0x1350 JUMP JUMPDEST PUSH0 DUP2 MSTORE PUSH1 0x60 DUP4 DUP3 ADD MSTORE PUSH1 0x60 PUSH1 0x40 DUP3 ADD MSTORE PUSH0 PUSH1 0x60 DUP3 ADD MSTORE PUSH0 PUSH1 0x80 DUP3 ADD MSTORE PUSH1 0x60 PUSH1 0xA0 DUP3 ADD MSTORE PUSH0 PUSH1 0xC0 DUP3 ADD MSTORE PUSH0 PUSH1 0xE0 DUP3 ADD MSTORE PUSH0 PUSH2 0x100 DUP3 ADD MSTORE DUP3 DUP3 DUP10 ADD ADD MSTORE ADD PUSH2 0x6E7 JUMP JUMPDEST CALLVALUE PUSH2 0x59B JUMPI PUSH1 0x20 CALLDATASIZE PUSH1 0x3 NOT ADD SLT PUSH2 0x59B JUMPI PUSH1 0x4 CALLDATALOAD PUSH0 MSTORE PUSH1 0x3 PUSH1 0x20 MSTORE PUSH1 0x40 PUSH0 KECCAK256 DUP1 SLOAD SWAP1 PUSH2 0x9B3 DUP3 PUSH2 0x153C JUMP JUMPDEST SWAP2 PUSH2 0x9C1 PUSH1 0x40 MLOAD SWAP4 DUP5 PUSH2 0x136C JUMP JUMPDEST DUP1 DUP4 MSTORE PUSH1 0x20 DUP4 ADD DUP1 SWAP3 PUSH0 MSTORE PUSH1 0x20 PUSH0 KECCAK256 PUSH0 SWAP2 JUMPDEST DUP4 DUP4 LT PUSH2 0xA5F JUMPI DUP5 DUP7 PUSH1 0x40 MLOAD SWAP2 DUP3 SWAP2 PUSH1 0x20 DUP4 ADD SWAP1 PUSH1 0x20 DUP5 MSTORE MLOAD DUP1 SWAP2 MSTORE PUSH1 0x40 DUP4 ADD SWAP1 PUSH1 0x40 DUP2 PUSH1 0x5 SHL DUP6 ADD ADD SWAP3 SWAP2 PUSH0 SWAP1 JUMPDEST DUP3 DUP3 LT PUSH2 0xA11 JUMPI POP POP POP POP SUB SWAP1 RETURN JUMPDEST SWAP2 SWAP4 PUSH1 0x1 SWAP2 SWAP4 SWAP6 POP PUSH1 0x20 DUP1 SWAP2 PUSH1 0x3F NOT DUP10 DUP3 SUB ADD DUP6 MSTORE DUP8 MLOAD SWAP1 DUP2 MLOAD DUP2 MSTORE PUSH1 0x40 DUP1 PUSH2 0xA47 DUP6 DUP6 ADD MLOAD PUSH1 0x60 DUP8 DUP7 ADD MSTORE PUSH1 0x60 DUP6 ADD SWAP1 PUSH2 0x12CF JUMP JUMPDEST SWAP4 ADD MLOAD ISZERO ISZERO SWAP2 ADD MSTORE SWAP7 ADD SWAP3 ADD SWAP3 ADD DUP6 SWAP5 SWAP4 SWAP2 SWAP3 PUSH2 0xA02 JUMP JUMPDEST PUSH1 0x3 PUSH1 0x20 PUSH1 0x1 SWAP3 PUSH1 0x40 MLOAD PUSH2 0xA72 DUP2 PUSH2 0x1335 JUMP JUMPDEST DUP6 SLOAD DUP2 MSTORE PUSH2 0xA81 DUP6 DUP8 ADD PUSH2 0x1553 JUMP JUMPDEST DUP4 DUP3 ADD MSTORE PUSH1 0xFF PUSH1 0x2 DUP8 ADD SLOAD AND ISZERO ISZERO PUSH1 0x40 DUP3 ADD MSTORE DUP2 MSTORE ADD SWAP3 ADD SWAP3 ADD SWAP2 SWAP1 PUSH2 0x9D3 JUMP JUMPDEST CALLVALUE PUSH2 0x59B JUMPI PUSH1 0x40 CALLDATASIZE PUSH1 0x3 NOT ADD SLT PUSH2 0x59B JUMPI PUSH1 0x4 CALLDATALOAD PUSH1 0x24 CALLDATALOAD PUSH1 0xFF DUP2 AND SWAP1 DUP2 DUP2 SUB PUSH2 0x59B JUMPI PUSH32 0xEAFA114CDE328778F836413412FF75F61F1C8115C4515A495BA5926A9FA86BE6 SWAP2 PUSH2 0xB3D PUSH1 0x20 SWAP3 CALLER PUSH0 MSTORE PUSH1 0x1 DUP5 MSTORE PUSH1 0x40 PUSH0 KECCAK256 DUP7 PUSH0 MSTORE DUP5 MSTORE PUSH2 0xB10 PUSH1 0xFF PUSH1 0x7 PUSH1 0x40 PUSH0 KECCAK256 ADD SLOAD AND PUSH2 0x12F3 JUMP JUMPDEST CALLER PUSH0 MSTORE PUSH1 0x1 DUP5 MSTORE PUSH1 0x40 PUSH0 KECCAK256 DUP7 PUSH0 MSTORE DUP5 MSTORE PUSH1 0x3 PUSH1 0x40 PUSH0 KECCAK256 ADD SWAP1 PUSH2 0xFF00 DUP3 SLOAD SWAP2 PUSH1 0x8 SHL AND SWAP1 PUSH2 0xFF00 NOT AND OR SWAP1 SSTORE JUMP JUMPDEST PUSH1 0x40 MLOAD SWAP1 DUP2 MSTORE LOG2 STOP JUMPDEST CALLVALUE PUSH2 0x59B JUMPI PUSH1 0x20 CALLDATASIZE PUSH1 0x3 NOT ADD SLT PUSH2 0x59B JUMPI PUSH1 0x4 CALLDATALOAD CALLER PUSH0 MSTORE PUSH1 0x1 PUSH1 0x20 MSTORE PUSH1 0x40 PUSH0 KECCAK256 DUP2 PUSH0 MSTORE PUSH1 0x20 MSTORE PUSH2 0xB7F PUSH1 0xFF PUSH1 0x7 PUSH1 0x40 PUSH0 KECCAK256 ADD SLOAD AND PUSH2 0x12F3 JUMP JUMPDEST CALLER PUSH0 MSTORE PUSH1 0x1 PUSH1 0x20 MSTORE PUSH1 0x40 PUSH0 KECCAK256 DUP2 PUSH0 MSTORE PUSH1 0x20 MSTORE PUSH1 0x40 PUSH0 KECCAK256 PUSH0 DUP2 SSTORE PUSH2 0xBA4 PUSH1 0x1 DUP3 ADD PUSH2 0x1492 JUMP JUMPDEST PUSH2 0xBB0 PUSH1 0x2 DUP3 ADD PUSH2 0x1492 JUMP JUMPDEST PUSH0 PUSH1 0x3 DUP3 ADD SSTORE PUSH1 0x4 DUP2 ADD DUP1 SLOAD SWAP1 PUSH0 DUP2 SSTORE DUP2 PUSH2 0xCA7 JUMPI JUMPDEST POP POP PUSH1 0x7 DUP2 PUSH0 PUSH1 0x5 DUP2 SWAP5 ADD SSTORE DUP3 PUSH1 0x6 DUP3 ADD SSTORE ADD SSTORE CALLER PUSH0 MSTORE PUSH1 0x2 PUSH1 0x20 MSTORE PUSH1 0x40 PUSH0 KECCAK256 PUSH0 JUMPDEST DUP2 SLOAD SWAP1 DUP2 DUP2 LT ISZERO PUSH2 0xC9F JUMPI DUP4 PUSH2 0xBFE DUP3 DUP6 PUSH2 0x1527 JUMP JUMPDEST SWAP1 SLOAD SWAP1 PUSH1 0x3 SHL SHR EQ PUSH2 0xC14 JUMPI PUSH1 0x1 SWAP2 POP ADD PUSH2 0xBE8 JUMP JUMPDEST PUSH0 NOT DUP3 ADD SWAP2 DUP3 GT PUSH2 0x59F JUMPI PUSH2 0x355 PUSH2 0xC2F PUSH2 0xC3D SWAP4 DUP6 PUSH2 0x1527 JUMP JUMPDEST SWAP1 SLOAD SWAP1 PUSH1 0x3 SHL SHR SWAP2 DUP5 PUSH2 0x1527 JUMP JUMPDEST DUP1 SLOAD DUP1 ISZERO PUSH2 0xC8B JUMPI PUSH0 NOT ADD SWAP1 PUSH2 0xC53 DUP3 DUP3 PUSH2 0x1527 JUMP JUMPDEST DUP2 SLOAD SWAP1 PUSH0 NOT SWAP1 PUSH1 0x3 SHL SHL NOT AND SWAP1 SSTORE SSTORE JUMPDEST CALLER SWAP1 PUSH32 0x240EB6C41AB2C1D4565D3F6EA56F82DA83BD83014D758763A7CAA5EFF3135AC8 PUSH0 DUP1 LOG3 STOP JUMPDEST PUSH4 0x4E487B71 PUSH1 0xE0 SHL PUSH0 MSTORE PUSH1 0x31 PUSH1 0x4 MSTORE PUSH1 0x24 PUSH0 REVERT JUMPDEST POP POP POP PUSH2 0xC63 JUMP JUMPDEST PUSH0 MSTORE PUSH1 0x20 PUSH0 KECCAK256 SWAP1 DUP2 ADD SWAP1 JUMPDEST DUP2 DUP2 LT ISZERO PUSH2 0xBC6 JUMPI DUP1 PUSH2 0xCC6 PUSH1 0x1 SWAP3 PUSH2 0x1492 JUMP JUMPDEST ADD PUSH2 0xCB2 JUMP JUMPDEST CALLVALUE PUSH2 0x59B JUMPI PUSH1 0xE0 CALLDATASIZE PUSH1 0x3 NOT ADD SLT PUSH2 0x59B JUMPI PUSH1 0x4 CALLDATALOAD PUSH1 0x24 CALLDATALOAD PUSH1 0x1 PUSH1 0x1 PUSH1 0x40 SHL SUB DUP2 GT PUSH2 0x59B JUMPI PUSH2 0xCFF SWAP1 CALLDATASIZE SWAP1 PUSH1 0x4 ADD PUSH2 0x1262 JUMP JUMPDEST SWAP1 PUSH1 0x44 CALLDATALOAD PUSH1 0x1 PUSH1 0x1 PUSH1 0x40 SHL SUB DUP2 GT PUSH2 0x59B JUMPI PUSH2 0xD1F SWAP1 CALLDATASIZE SWAP1 PUSH1 0x4 ADD PUSH2 0x1262 JUMP JUMPDEST SWAP2 SWAP1 PUSH2 0xD29 PUSH2 0x128F JUMP JUMPDEST PUSH1 0x84 CALLDATALOAD SWAP2 PUSH1 0xFF DUP4 AND DUP4 SUB PUSH2 0x59B JUMPI PUSH1 0xA4 CALLDATALOAD PUSH1 0x1 PUSH1 0x1 PUSH1 0x40 SHL SUB DUP2 GT PUSH2 0x59B JUMPI PUSH2 0xD56 SWAP1 CALLDATASIZE SWAP1 PUSH1 0x4 ADD PUSH2 0x129F JUMP JUMPDEST SWAP6 SWAP1 SWAP5 CALLER PUSH0 MSTORE PUSH1 0x1 PUSH1 0x20 MSTORE PUSH1 0x40 PUSH0 KECCAK256 DUP10 PUSH0 MSTORE PUSH1 0x20 MSTORE PUSH2 0xD7E PUSH1 0xFF PUSH1 0x7 PUSH1 0x40 PUSH0 KECCAK256 ADD SLOAD AND PUSH2 0x12F3 JUMP JUMPDEST CALLER PUSH0 MSTORE PUSH1 0x1 PUSH1 0x20 MSTORE PUSH1 0x40 PUSH0 KECCAK256 DUP10 PUSH0 MSTORE PUSH1 0x20 MSTORE PUSH1 0x40 PUSH0 KECCAK256 SWAP8 PUSH1 0x1 DUP10 ADD SWAP2 PUSH1 0x1 PUSH1 0x1 PUSH1 0x40 SHL SUB DUP3 GT PUSH2 0x39D JUMPI PUSH2 0xDB6 DUP3 PUSH2 0x1EE DUP6 SLOAD PUSH2 0x13FF JUMP JUMPDEST PUSH0 SWAP1 PUSH1 0x1F DUP4 GT PUSH1 0x1 EQ PUSH2 0x1041 JUMPI PUSH2 0xDE3 SWAP3 SWAP2 PUSH0 SWAP2 DUP4 PUSH2 0x1036 JUMPI POP POP DUP2 PUSH1 0x1 SHL SWAP2 PUSH0 NOT SWAP1 PUSH1 0x3 SHL SHR NOT AND OR SWAP1 JUMP JUMPDEST SWAP1 SSTORE JUMPDEST PUSH1 0x2 DUP8 ADD SWAP2 PUSH1 0x1 PUSH1 0x1 PUSH1 0x40 SHL SUB DUP3 GT PUSH2 0x39D JUMPI PUSH2 0xE07 DUP3 PUSH2 0x1EE DUP6 SLOAD PUSH2 0x13FF JUMP JUMPDEST PUSH0 SWAP1 PUSH1 0x1F DUP4 GT PUSH1 0x1 EQ PUSH2 0xFC9 JUMPI SWAP2 DUP1 PUSH2 0xE3B SWAP3 PUSH2 0xE68 SWAP8 SWAP7 SWAP6 SWAP5 PUSH0 SWAP3 PUSH2 0xFBE JUMPI POP POP DUP2 PUSH1 0x1 SHL SWAP2 PUSH0 NOT SWAP1 PUSH1 0x3 SHL SHR NOT AND OR SWAP1 JUMP JUMPDEST SWAP1 SSTORE SWAP4 SWAP3 SWAP4 JUMPDEST PUSH1 0xFF PUSH1 0x3 DUP8 ADD SWAP2 AND PUSH1 0xFF NOT DUP3 SLOAD AND OR DUP2 SSTORE SWAP1 PUSH2 0xFF00 DUP3 SLOAD SWAP2 PUSH1 0x8 SHL AND SWAP1 PUSH2 0xFF00 NOT AND OR SWAP1 SSTORE JUMP JUMPDEST PUSH1 0x4 DUP4 ADD SWAP2 PUSH2 0xE77 DUP3 DUP5 PUSH2 0x14E0 JUMP JUMPDEST DUP1 SWAP3 PUSH0 MSTORE PUSH1 0x20 PUSH0 KECCAK256 SWAP3 PUSH0 SWAP2 PUSH1 0x1E NOT DUP2 CALLDATASIZE SUB ADD SWAP2 JUMPDEST DUP5 DUP5 LT PUSH2 0xEC2 JUMPI PUSH1 0xC4 CALLDATALOAD PUSH1 0x5 DUP9 ADD SSTORE CALLER DUP9 PUSH32 0x84E14DF21A3AFBA7CE0B61B7321717E35008D64AFBAB5D3E5BAB9ACA9422E8F5 PUSH0 DUP1 LOG3 STOP JUMPDEST DUP1 CALLDATALOAD DUP4 DUP2 SLT ISZERO PUSH2 0x59B JUMPI DUP3 ADD DUP1 CALLDATALOAD SWAP1 PUSH1 0x1 PUSH1 0x1 PUSH1 0x40 SHL SUB DUP3 GT PUSH2 0x59B JUMPI DUP2 CALLDATASIZE SUB PUSH1 0x20 DUP3 ADD SGT PUSH2 0x59B JUMPI PUSH2 0xEFF DUP3 PUSH2 0xEF9 DUP11 SLOAD PUSH2 0x13FF JUMP JUMPDEST DUP11 PUSH2 0x144D JUMP JUMPDEST PUSH0 SWAP1 PUSH1 0x1F DUP4 GT PUSH1 0x1 EQ PUSH2 0xF50 JUMPI SWAP3 PUSH2 0xF34 DUP4 PUSH1 0x1 SWAP6 SWAP5 PUSH1 0x20 SWAP5 DUP8 SWAP7 PUSH0 SWAP3 PUSH2 0xF43 JUMPI POP POP DUP2 PUSH1 0x1 SHL SWAP2 PUSH0 NOT SWAP1 PUSH1 0x3 SHL SHR NOT AND OR SWAP1 JUMP JUMPDEST DUP10 SSTORE JUMPDEST ADD SWAP7 ADD SWAP4 ADD SWAP3 SWAP5 PUSH2 0xE8B JUMP JUMPDEST DUP7 SWAP3 POP ADD ADD CALLDATALOAD DUP15 DUP1 PUSH2 0x20F JUMP JUMPDEST PUSH1 0x1F NOT DUP4 AND SWAP2 DUP10 PUSH0 MSTORE PUSH1 0x20 PUSH0 KECCAK256 SWAP3 PUSH0 JUMPDEST DUP2 DUP2 LT PUSH2 0xFA4 JUMPI POP SWAP4 PUSH1 0x20 SWAP4 PUSH1 0x1 SWAP7 SWAP4 DUP8 SWAP7 SWAP4 DUP4 DUP9 SWAP6 LT PUSH2 0xF89 JUMPI JUMPDEST POP POP POP DUP2 SHL ADD DUP10 SSTORE PUSH2 0xF37 JUMP JUMPDEST ADD DUP6 ADD CALLDATALOAD PUSH0 NOT PUSH1 0x3 DUP5 SWAP1 SHL PUSH1 0xF8 AND SHR NOT AND SWAP1 SSTORE DUP14 DUP1 DUP1 PUSH2 0xF7C JUMP JUMPDEST SWAP2 SWAP4 PUSH1 0x20 PUSH1 0x1 DUP2 SWAP3 DUP3 DUP9 DUP9 ADD ADD CALLDATALOAD DUP2 SSTORE ADD SWAP6 ADD SWAP3 ADD PUSH2 0xF60 JUMP JUMPDEST ADD CALLDATALOAD SWAP1 POP DUP12 DUP1 PUSH2 0x20F JUMP JUMPDEST PUSH1 0x1F NOT DUP4 AND SWAP2 DUP5 PUSH0 MSTORE PUSH1 0x20 PUSH0 KECCAK256 SWAP3 PUSH0 JUMPDEST DUP2 DUP2 LT PUSH2 0x101E JUMPI POP SWAP2 PUSH1 0x1 SWAP4 SWAP2 DUP6 PUSH2 0xE68 SWAP10 SWAP9 SWAP8 SWAP7 SWAP5 LT PUSH2 0x1005 JUMPI JUMPDEST POP POP POP DUP2 SHL ADD SWAP1 SSTORE SWAP4 SWAP3 SWAP4 PUSH2 0xE41 JUMP JUMPDEST ADD CALLDATALOAD PUSH0 NOT PUSH1 0x3 DUP5 SWAP1 SHL PUSH1 0xF8 AND SHR NOT AND SWAP1 SSTORE DUP11 DUP1 DUP1 PUSH2 0xFF5 JUMP JUMPDEST SWAP2 SWAP4 PUSH1 0x20 PUSH1 0x1 DUP2 SWAP3 DUP8 DUP8 ADD CALLDATALOAD DUP2 SSTORE ADD SWAP6 ADD SWAP3 ADD PUSH2 0xFD9 JUMP JUMPDEST ADD CALLDATALOAD SWAP1 POP DUP13 DUP1 PUSH2 0x20F JUMP JUMPDEST PUSH1 0x1F NOT DUP4 AND SWAP2 DUP5 PUSH0 MSTORE PUSH1 0x20 PUSH0 KECCAK256 SWAP3 PUSH0 JUMPDEST DUP2 DUP2 LT PUSH2 0x108D JUMPI POP SWAP1 DUP5 PUSH1 0x1 SWAP6 SWAP5 SWAP4 SWAP3 LT PUSH2 0x1074 JUMPI JUMPDEST POP POP POP DUP2 SHL ADD SWAP1 SSTORE PUSH2 0xDE6 JUMP JUMPDEST ADD CALLDATALOAD PUSH0 NOT PUSH1 0x3 DUP5 SWAP1 SHL PUSH1 0xF8 AND SHR NOT AND SWAP1 SSTORE DUP12 DUP1 DUP1 PUSH2 0x1067 JUMP JUMPDEST SWAP2 SWAP4 PUSH1 0x20 PUSH1 0x1 DUP2 SWAP3 DUP8 DUP8 ADD CALLDATALOAD DUP2 SSTORE ADD SWAP6 ADD SWAP3 ADD PUSH2 0x1051 JUMP JUMPDEST CALLVALUE PUSH2 0x59B JUMPI PUSH1 0x40 CALLDATASIZE PUSH1 0x3 NOT ADD SLT PUSH2 0x59B JUMPI PUSH1 0x24 CALLDATALOAD PUSH1 0x4 CALLDATALOAD PUSH1 0x1 PUSH1 0x1 PUSH1 0x40 SHL SUB DUP3 GT PUSH2 0x59B JUMPI PUSH2 0x10DB PUSH2 0x112B SWAP3 CALLDATASIZE SWAP1 PUSH1 0x4 ADD PUSH2 0x1262 JUMP JUMPDEST SWAP3 SWAP1 CALLER PUSH0 MSTORE PUSH1 0x1 PUSH1 0x20 MSTORE PUSH1 0x40 PUSH0 KECCAK256 DUP4 PUSH0 MSTORE PUSH1 0x20 MSTORE PUSH2 0x1102 PUSH1 0xFF PUSH1 0x7 PUSH1 0x40 PUSH0 KECCAK256 ADD SLOAD AND PUSH2 0x12F3 JUMP JUMPDEST PUSH0 SWAP3 DUP4 MSTORE PUSH1 0x3 PUSH1 0x20 MSTORE PUSH1 0x40 SWAP3 DUP4 SWAP1 KECCAK256 DUP1 SLOAD SWAP4 MLOAD SWAP1 SWAP5 SWAP1 SWAP4 PUSH2 0x1122 DUP6 PUSH2 0x1335 JUMP JUMPDEST DUP5 MSTORE CALLDATASIZE SWAP2 PUSH2 0x138D JUMP JUMPDEST SWAP2 PUSH1 0x20 DUP3 ADD SWAP3 DUP4 MSTORE PUSH1 0x40 DUP3 ADD SWAP1 PUSH0 DUP3 MSTORE DUP1 SLOAD PUSH1 0x1 PUSH1 0x40 SHL DUP2 LT ISZERO PUSH2 0x39D JUMPI PUSH2 0x1158 SWAP2 PUSH1 0x1 DUP3 ADD DUP2 SSTORE PUSH2 0x13D2 JUMP JUMPDEST SWAP3 SWAP1 SWAP3 PUSH2 0x124F JUMPI MLOAD DUP3 SSTORE PUSH1 0x1 DUP3 ADD SWAP3 MLOAD SWAP3 DUP4 MLOAD PUSH1 0x1 PUSH1 0x1 PUSH1 0x40 SHL SUB DUP2 GT PUSH2 0x39D JUMPI PUSH2 0x118D DUP2 PUSH2 0x1187 DUP5 SLOAD PUSH2 0x13FF JUMP JUMPDEST DUP5 PUSH2 0x144D JUMP JUMPDEST PUSH1 0x20 PUSH1 0x1F DUP3 GT PUSH1 0x1 EQ PUSH2 0x11E6 JUMPI DUP2 PUSH1 0x2 SWAP5 SWAP4 SWAP3 PUSH2 0x11C2 SWAP3 PUSH2 0x64E SWAP9 PUSH0 SWAP3 PUSH2 0x11DB JUMPI POP POP DUP2 PUSH1 0x1 SHL SWAP2 PUSH0 NOT SWAP1 PUSH1 0x3 SHL SHR NOT AND OR SWAP1 JUMP JUMPDEST SWAP1 SSTORE JUMPDEST MLOAD ISZERO ISZERO SWAP2 ADD SWAP1 PUSH1 0xFF DUP1 NOT DUP4 SLOAD AND SWAP2 ISZERO ISZERO AND OR SWAP1 SSTORE JUMP JUMPDEST ADD MLOAD SWAP1 POP DUP9 DUP1 PUSH2 0x20F JUMP JUMPDEST PUSH1 0x1F NOT DUP3 AND SWAP6 DUP4 PUSH0 MSTORE DUP2 PUSH0 KECCAK256 SWAP7 PUSH0 JUMPDEST DUP2 DUP2 LT PUSH2 0x1237 JUMPI POP SWAP7 PUSH1 0x1 SWAP3 DUP5 SWAP3 PUSH1 0x2 SWAP8 SWAP7 SWAP6 PUSH2 0x64E SWAP11 LT PUSH2 0x121F JUMPI JUMPDEST POP POP POP DUP2 SHL ADD SWAP1 SSTORE PUSH2 0x11C5 JUMP JUMPDEST ADD MLOAD PUSH0 NOT PUSH1 0xF8 DUP5 PUSH1 0x3 SHL AND SHR NOT AND SWAP1 SSTORE DUP8 DUP1 DUP1 PUSH2 0x1212 JUMP JUMPDEST DUP4 DUP4 ADD MLOAD DUP10 SSTORE PUSH1 0x1 SWAP1 SWAP9 ADD SWAP8 PUSH1 0x20 SWAP4 DUP5 ADD SWAP4 ADD PUSH2 0x11F5 JUMP JUMPDEST PUSH4 0x4E487B71 PUSH1 0xE0 SHL PUSH0 MSTORE PUSH0 PUSH1 0x4 MSTORE PUSH1 0x24 PUSH0 REVERT JUMPDEST SWAP2 DUP2 PUSH1 0x1F DUP5 ADD SLT ISZERO PUSH2 0x59B JUMPI DUP3 CALLDATALOAD SWAP2 PUSH1 0x1 PUSH1 0x1 PUSH1 0x40 SHL SUB DUP4 GT PUSH2 0x59B JUMPI PUSH1 0x20 DUP4 DUP2 DUP7 ADD SWAP6 ADD ADD GT PUSH2 0x59B JUMPI JUMP JUMPDEST PUSH1 0x64 CALLDATALOAD SWAP1 PUSH1 0xFF DUP3 AND DUP3 SUB PUSH2 0x59B JUMPI JUMP JUMPDEST SWAP2 DUP2 PUSH1 0x1F DUP5 ADD SLT ISZERO PUSH2 0x59B JUMPI DUP3 CALLDATALOAD SWAP2 PUSH1 0x1 PUSH1 0x1 PUSH1 0x40 SHL SUB DUP4 GT PUSH2 0x59B JUMPI PUSH1 0x20 DUP1 DUP6 ADD SWAP5 DUP5 PUSH1 0x5 SHL ADD ADD GT PUSH2 0x59B JUMPI JUMP JUMPDEST DUP1 MLOAD DUP1 DUP4 MSTORE PUSH1 0x20 SWAP3 SWAP2 DUP2 SWAP1 DUP5 ADD DUP5 DUP5 ADD MCOPY PUSH0 DUP3 DUP3 ADD DUP5 ADD MSTORE PUSH1 0x1F ADD PUSH1 0x1F NOT AND ADD ADD SWAP1 JUMP JUMPDEST ISZERO PUSH2 0x12FA JUMPI JUMP JUMPDEST PUSH1 0x40 MLOAD PUSH3 0x461BCD PUSH1 0xE5 SHL DUP2 MSTORE PUSH1 0x20 PUSH1 0x4 DUP3 ADD MSTORE PUSH1 0x13 PUSH1 0x24 DUP3 ADD MSTORE PUSH19 0x151BD91BC8191BD95CC81B9BDD08195E1A5CDD PUSH1 0x6A SHL PUSH1 0x44 DUP3 ADD MSTORE PUSH1 0x64 SWAP1 REVERT JUMPDEST PUSH1 0x60 DUP2 ADD SWAP1 DUP2 LT PUSH1 0x1 PUSH1 0x1 PUSH1 0x40 SHL SUB DUP3 GT OR PUSH2 0x39D JUMPI PUSH1 0x40 MSTORE JUMP JUMPDEST PUSH2 0x120 DUP2 ADD SWAP1 DUP2 LT PUSH1 0x1 PUSH1 0x1 PUSH1 0x40 SHL SUB DUP3 GT OR PUSH2 0x39D JUMPI PUSH1 0x40 MSTORE JUMP JUMPDEST SWAP1 PUSH1 0x1F DUP1 NOT SWAP2 ADD AND DUP2 ADD SWAP1 DUP2 LT PUSH1 0x1 PUSH1 0x1 PUSH1 0x40 SHL SUB DUP3 GT OR PUSH2 0x39D JUMPI PUSH1 0x40 MSTORE JUMP JUMPDEST SWAP3 SWAP2 SWAP3 PUSH1 0x1 PUSH1 0x1 PUSH1 0x40 SHL SUB DUP3 GT PUSH2 0x39D JUMPI PUSH1 0x40 MLOAD SWAP2 PUSH2 0x13B6 PUSH1 0x1F DUP3 ADD PUSH1 0x1F NOT AND PUSH1 0x20 ADD DUP5 PUSH2 0x136C JUMP JUMPDEST DUP3 SWAP5 DUP2 DUP5 MSTORE DUP2 DUP4 ADD GT PUSH2 0x59B JUMPI DUP3 DUP2 PUSH1 0x20 SWAP4 DUP5 PUSH0 SWAP7 ADD CALLDATACOPY ADD ADD MSTORE JUMP JUMPDEST DUP1 SLOAD DUP3 LT ISZERO PUSH2 0x13EB JUMPI PUSH0 MSTORE PUSH1 0x3 PUSH1 0x20 PUSH0 KECCAK256 SWAP2 MUL ADD SWAP1 PUSH0 SWAP1 JUMP JUMPDEST PUSH4 0x4E487B71 PUSH1 0xE0 SHL PUSH0 MSTORE PUSH1 0x32 PUSH1 0x4 MSTORE PUSH1 0x24 PUSH0 REVERT JUMPDEST SWAP1 PUSH1 0x1 DUP3 DUP2 SHR SWAP3 AND DUP1 ISZERO PUSH2 0x142D JUMPI JUMPDEST PUSH1 0x20 DUP4 LT EQ PUSH2 0x1419 JUMPI JUMP JUMPDEST PUSH4 0x4E487B71 PUSH1 0xE0 SHL PUSH0 MSTORE PUSH1 0x22 PUSH1 0x4 MSTORE PUSH1 0x24 PUSH0 REVERT JUMPDEST SWAP2 PUSH1 0x7F AND SWAP2 PUSH2 0x140E JUMP JUMPDEST DUP2 DUP2 LT PUSH2 0x1442 JUMPI POP POP JUMP JUMPDEST PUSH0 DUP2 SSTORE PUSH1 0x1 ADD PUSH2 0x1437 JUMP JUMPDEST SWAP2 SWAP1 PUSH1 0x1F DUP2 GT PUSH2 0x145C JUMPI POP POP POP JUMP JUMPDEST PUSH2 0x1486 SWAP3 PUSH0 MSTORE PUSH1 0x20 PUSH0 KECCAK256 SWAP1 PUSH1 0x20 PUSH1 0x1F DUP5 ADD PUSH1 0x5 SHR DUP4 ADD SWAP4 LT PUSH2 0x1488 JUMPI JUMPDEST PUSH1 0x1F ADD PUSH1 0x5 SHR ADD SWAP1 PUSH2 0x1437 JUMP JUMPDEST JUMP JUMPDEST SWAP1 SWAP2 POP DUP2 SWAP1 PUSH2 0x1479 JUMP JUMPDEST PUSH2 0x149C DUP2 SLOAD PUSH2 0x13FF JUMP JUMPDEST SWAP1 DUP2 PUSH2 0x14A6 JUMPI POP POP JUMP JUMPDEST DUP2 PUSH1 0x1F PUSH0 SWAP4 GT PUSH1 0x1 EQ PUSH2 0x14B7 JUMPI POP SSTORE JUMP JUMPDEST DUP2 DUP4 MSTORE PUSH1 0x20 DUP4 KECCAK256 PUSH2 0x14D3 SWAP2 PUSH1 0x1F ADD PUSH1 0x5 SHR DUP2 ADD SWAP1 PUSH1 0x1 ADD PUSH2 0x1437 JUMP JUMPDEST DUP1 DUP3 MSTORE DUP2 PUSH1 0x20 DUP2 KECCAK256 SWAP2 SSTORE SSTORE JUMP JUMPDEST SWAP1 PUSH1 0x1 PUSH1 0x40 SHL DUP2 GT PUSH2 0x39D JUMPI DUP2 SLOAD SWAP2 DUP2 DUP2 SSTORE DUP3 DUP3 LT PUSH2 0x14FE JUMPI POP POP POP JUMP JUMPDEST PUSH0 MSTORE PUSH1 0x20 PUSH0 KECCAK256 SWAP2 DUP3 ADD SWAP2 ADD JUMPDEST DUP2 DUP2 LT PUSH2 0x1515 JUMPI POP POP JUMP JUMPDEST DUP1 PUSH2 0x1521 PUSH1 0x1 SWAP3 PUSH2 0x1492 JUMP JUMPDEST ADD PUSH2 0x150A JUMP JUMPDEST DUP1 SLOAD DUP3 LT ISZERO PUSH2 0x13EB JUMPI PUSH0 MSTORE PUSH1 0x20 PUSH0 KECCAK256 ADD SWAP1 PUSH0 SWAP1 JUMP JUMPDEST PUSH1 0x1 PUSH1 0x1 PUSH1 0x40 SHL SUB DUP2 GT PUSH2 0x39D JUMPI PUSH1 0x5 SHL PUSH1 0x20 ADD SWAP1 JUMP JUMPDEST SWAP1 PUSH1 0x40 MLOAD SWAP2 DUP3 PUSH0 DUP3 SLOAD SWAP3 PUSH2 0x1566 DUP5 PUSH2 0x13FF JUMP JUMPDEST DUP1 DUP5 MSTORE SWAP4 PUSH1 0x1 DUP2 AND SWAP1 DUP2 ISZERO PUSH2 0x15CF JUMPI POP PUSH1 0x1 EQ PUSH2 0x158B JUMPI JUMPDEST POP PUSH2 0x1486 SWAP3 POP SUB DUP4 PUSH2 0x136C JUMP JUMPDEST SWAP1 POP PUSH0 SWAP3 SWAP2 SWAP3 MSTORE PUSH1 0x20 PUSH0 KECCAK256 SWAP1 PUSH0 SWAP2 JUMPDEST DUP2 DUP4 LT PUSH2 0x15B3 JUMPI POP POP SWAP1 PUSH1 0x20 PUSH2 0x1486 SWAP3 DUP3 ADD ADD PUSH0 PUSH2 0x157E JUMP JUMPDEST PUSH1 0x20 SWAP2 SWAP4 POP DUP1 PUSH1 0x1 SWAP2 SLOAD DUP4 DUP6 DUP10 ADD ADD MSTORE ADD SWAP2 ADD SWAP1 SWAP2 DUP5 SWAP3 PUSH2 0x159A JUMP JUMPDEST SWAP1 POP PUSH1 0x20 SWAP3 POP PUSH2 0x1486 SWAP5 SWAP2 POP PUSH1 0xFF NOT AND DUP3 DUP5 ADD MSTORE ISZERO ISZERO PUSH1 0x5 SHL DUP3 ADD ADD PUSH0 PUSH2 0x157E JUMP JUMPDEST DUP1 MLOAD DUP3 LT ISZERO PUSH2 0x13EB JUMPI PUSH1 0x20 SWAP2 PUSH1 0x5 SHL ADD ADD SWAP1 JUMP INVALID LOG2 PUSH5 0x6970667358 0x22 SLT KECCAK256 0xC9 DUP14 ADDRESS PUSH19 0xCEE55D6CF613ED3AEE32E338CF77CA4714C454 DIV 0xE6 DUP11 EXTCODESIZE 0xF9 SWAP15 STOP LOG3 DUP13 PUSH5 0x736F6C6343 STOP ADDMOD SHR STOP CALLER "},"methodIdentifiers":{"addSubTask(uint256,string)":"209f59d6","createTodo(string,string,uint8,uint8,string[],uint256)":"d90de7b4","deleteTodo(uint256)":"6e3c6738","getSubtasks(uint256)":"a35c0e18","getTodos(address)":"b9cdbde9","moveTodo(uint256,uint8)":"9e1e0b19","toggleSubTask(uint256,uint256)":"cf27cf74","updateTodo(uint256,string,string,uint8,uint8,string[],uint256)":"67576a7f"}}}}}